:100000000C9427020C944F020C944F020C944F0254
:100010000C944F020C944F020C9496200C944F02B7
:100020000C944F020C944F020C944F020C944F020C
:100030000C944F020C944F020C944F020C944F02FC
:100040000C94F41F0C944F020C9464200C943E20EA
:100050000C944F020C944F020C944F020C944F02DC
:100060000C944F020C944F021B132C0AA3E59CED39
:10007000A72963085D210621EBFFFFFFFFFFFFFFBC
:10008000FFFFFFFFFFFFFFFF0F00A3DDB7A5B38A50
:10009000DE6DF5525177809FF0207DE3AB648E4E8C
:1000A000EA6665768BD70F5F876758666666666611
:1000B00066666666666666666666666666666666E0
:1000C000666666666666666666661AD5258F602D04
:1000D00056C9B2A7259560C72C695CDCD6FD31E214
:1000E000A4C0FE536ECDD3366921B0A00E4A271BA3
:1000F000EEC478E42FAD0618432FA7D7FB3D990037
:100100004D2B0BDFC14F8024832BA3785913CA4D8D
:10011000EB75ABD841414D0A700098E8797779408A
:10012000C78C73FE6F2BEE6C0352010000000000C1
:1001300000000000000000000000000000000000BF
:100140000000000000000000000008C9BCF367E6E2
:10015000096A3BA7CA8485AE67BB2BF894FE72F38D
:100160006E3CF1361D5F3AF54FA5D182E6AD7F5268
:100170000E511F6C3E2B8C68059B6BBD41FBABD9B0
:10018000831F79217E1319CDE05B22AE28D7982FEB
:100190008A42CD65EF23914437712F3B4DECCFFB65
:1001A000C0B5BCDB8981A5DBB5E938B548F35BC2D6
:1001B000563919D005B6F111F1599B4F19AFA482E8
:1001C0003F9218816DDAD55E1CAB420203A398AA58
:1001D00007D8BE6F7045015B83128CB2E44EBE85BA
:1001E0003124E2B4FFD5C37D0C556F897BF2745D79
:1001F000BE72B196163BFEB1DE803512C725A7064A
:10020000DC9B942669CF74F19BC1D24AF19EC169EF
:100210009BE4E3254F388647BEEFB5D58C8BC69D52
:10022000C10F659CAC77CCA10C2475022B596F2CA7
:10023000E92D83E4A66EAA84744AD4FB41BDDCA9EF
:10024000B05CB5531183DA88F976ABDF66EE5251B4
:100250003E981032B42D6DC631A83F21FB98C827B7
:1002600003B0E40EEFBEC77F59BFC28FA83DF30BAA
:10027000E0C625A70A934791A7D56F8203E0516393
:10028000CA06706E0E0A67292914FC2FD246850A09
:10029000B72726C9265C38211B2EED2AC45AFC6DCF
:1002A0002C4DDFB3959D130D3853DE63AF8B547324
:1002B0000A65A8B2773CBB0A6A76E6AEED472EC95E
:1002C000C2813B358214852C72926403F14CA1E803
:1002D000BFA2013042BC4B661AA89197F8D0708B30
:1002E0004BC230BE5406A3516CC71852EFD619E862
:1002F00092D110A96555240699D62A2071578535C3
:100300000EF4B8D1BB3270A06A10C8D0D2B816C1F2
:10031000A41953AB4151086C371E99EB8EDF4C7713
:100320004827A8489BE1B5BCB034635AC9C5B30C93
:100330001C39CB8A41E34AAAD84E73E363774FCA8C
:100340009C5BA3B8B2D6F36F2E68FCB2EF5DEE8271
:100350008F74602F17436F63A57872ABF0A1147888
:10036000C884EC39641A0802C78C281E6323FAFF7C
:10037000BE90E9BD82DEEB6C50A41579C6B2F7A33E
:10038000F9BE2B5372E3F27871C69C6126EACE3E29
:1003900027CA07C2C021C7B886D11EEBE0CDD67DE3
:1003A000DAEA78D16EEE7F4F7DF5BA6F1772AA67E1
:1003B000F006A698C8A2C57D630AAE0DF9BE0498E2
:1003C0003F111B471C13350B711B847D0423F577EC
:1003D000DB289324C7407BABCA32BCBEC9150ABE1A
:1003E0009E3C4C0D109CC4671D43B6423ECBBED410
:1003F000C54C2A7E65FC9C297F59ECFAD63AAB6F36
:10040000CB5F1758474A8C19446C59F1B226949B1C
:10041000D6EB56B183829A14E00030D1F3EEF2802D
:100420008E19E7FCDF56DCD90624EDD3F55C1A63A0
:100430001258D69CF7A2DEF9DE140000000000007E
:100440000000000000000000001013217327112499
:100450001FBECFEFD8E0DEBFCDBF11E0A0E0B1E01E
:10046000E4EAF9E502C005900D92A434B107D9F78A
:1004700022E0A4E4B1E001C01D92AA38B207E1F77E
:1004800012E0C6E2D2E004C02197FE010E94A52A34
:10049000C532D107C9F70E9460210C94C52C0C9479
:1004A00000004F925F926F927F928F929F92AF92D5
:1004B000BF92CF92DF92EF92FF920F931F93CF9351
:1004C000DF932AE234E0EB01DC018B01005E1F4F79
:1004D000BC01A901812C912C5401C990D990FA0139
:1004E000E590F4904501AA24BB2424013501E1E004
:1004F0004E225524662477244601B12CA12C8E1857
:100500009F08A108B10884189508A608B708FB0140
:1005100081929192BF014E5F5F4FC017D107E9F6FC
:10052000E501C170DD27D195C195D1098096C12C17
:10053000D12C7601F90165917491ED91FC9111979F
:100540006C237D23AB0170E060E04E0F5F1F611DE7
:10055000711DC40ED51EE61EF71ECD92DD926701F9
:10056000EE24FF242E5F3F4FA817B90719F7DF913C
:10057000CF911F910F91FF90EF90DF90CF90BF90A0
:10058000AF909F908F907F906F905F904F90089565
:100590002F923F924F925F926F927F928F929F9293
:1005A000AF92BF92CF92DF92EF92FF920F931F9381
:1005B000CF93DF937C01FB01468D578D252F221FA2
:1005C0002227221F30E0A3E1B0E00E94202A4B0145
:1005D0005C015F77578F468F1F01AF01405E5F4F11
:1005E0008F0168010E5F1F4FD60190962D913C91AF
:1005F000A6E2B0E00E94202AE601288139812B0181
:100600003C01420E531E611C711C840C951CA61CDF
:10061000B71CD80112978D929C924501AA24BB2445
:1006200040175107F1F6A6E2B0E0A50194010E943F
:10063000D6294B015C01468D578D252F221F22277D
:10064000221F30E0A3E1B0E00E94202A680D791D4E
:100650008A1D9B1D5F77578F468FDF012D913D913E
:10066000620F731F811D911D9D0122503109E90107
:1006700079836883BC01882799270A171B0771F7BC
:10068000CF0143E150E060E070E0EC012991399145
:10069000CE01420F531F611D711D5F8F4E8FAB0145
:1006A00066277727A817B90781F786AD97AD9C0114
:1006B000330F220B322F9F7797AF86AFF701E101FF
:1006C000499159911E018E8D9F8D842795278223F4
:1006D00093238427952781939193AC17BD0779F7CE
:1006E000DF91CF911F910F91FF90EF90DF90CF900E
:1006F000BF90AF909F908F907F906F905F904F9042
:100700003F902F900895AF92BF92CF92DF92EF92D9
:10071000FF920F931F93CF93DF936C017B018B01AB
:10072000040F151FEB015E01AE18BF08C017D107FB
:1007300059F06991D601ED91FC910190F081E02D85
:10074000C6010995892B79F7C501DF91CF911F91DA
:100750000F91FF90EF90DF90CF90BF90AF900895F2
:10076000FC01538D448D252F30E0842F90E0821BB7
:10077000930B541710F0CF96089501970895FC013C
:10078000918D828D981761F0A28DAE0FBF2FB11D94
:100790005D968C91928D9F5F9F73928F90E00895EC
:1007A0008FEF9FEF08952FB7F89480914F019091AC
:1007B0005001A0915101B09152012FBF80935B0174
:1007C00090935C01A0935D01B0935E0183E591E09D
:1007D0000E94BF0397FF26C02FB7F89480914F0166
:1007E00090915001A0915101B09152012FBF4091C1
:1007F0005B0150915C0160915D0170915E01841B11
:10080000950BA60BB70B4091570150915801609181
:10081000590170915A0184179507A607B707B0F2DE
:100820008FEF9FEF0895FC01918D828D981731F025
:10083000828DE80FF11D858D90E008958FEF9FEF79
:100840000895FC01918D228D892F90E0805C9F4F4F
:10085000821B91098F739927089583E591E00E9487
:10086000210421E0892B09F420E0822F089580E003
:1008700090E0892B29F00E942D0481110C94000036
:100880000895FC01A48DA80FB92FB11DA35ABF4F25
:100890002C91848D90E001968F739927848FA6897F
:1008A000B7892C93A089B1898C91837080648C93D3
:1008B000938D848D981306C00288F389E02D808182
:1008C0008F7D80830895EF92FF920F931F93CF93B4
:1008D000DF93EC0181E0888F9B8D8C8D98131AC07B
:1008E000E889F989808185FF15C09FB7F894EE8962
:1008F000FF896083E889F9898081837080648083BF
:100900009FBF81E090E0DF91CF911F910F91FF9009
:10091000EF900895F62E0B8D10E00F5F1F4F0F73B1
:100920001127E02E8C8D8E110CC00FB607FCFACF6C
:10093000E889F989808185FFF5CFCE010E944104C5
:10094000F1CFEB8DEC0FFD2FF11DE35AFF4FF0823D
:100950009FB7F8940B8FEA89FB8980818062CFCFA3
:10096000CF93DF93EC01888D8823B9F0AA89BB89E6
:10097000E889F9898C9185FD03C0808186FD0DC0D1
:100980000FB607FCF7CF8C9185FFF2CF808185FFF2
:10099000EDCFCE010E944104E9CFDF91CF910895C0
:1009A0002F923F924F925F926F927F928F929F927F
:1009B000AF92BF92CF92DF92EF92FF920F931F936D
:1009C000CF93DF93CDB7DEB7C95AD1090FB6F894EC
:1009D000DEBF0FBECDBFDC011C0102E4200E311CC6
:1009E000FC01EE53FF4FFA83E98339A228A208A144
:1009F00019A1F80160817181828193810E942F2A5F
:100A00006B017C013896F9A3E8A3F80120813181BC
:100A100042815381648175818681978100E20E94C1
:100A2000512A022F132F9A01E8A1F9A13897432EDA
:100A3000552466247724702F662755274427442A97
:100A4000552A662A772A812E922EA32EBB2488242B
:100A5000AA24BB2484289528A628B728322F212F22
:100A6000102F0027002711273327082919292A29A1
:100A70003B2928013901812C912C5401488E598E33
:100A80006A8E7B8E8C8E9D8EAE8EBF8E9601A70158
:100A900060E070E080E090E000E20E94362A2429C5
:100AA0002083352931834629428357295383648320
:100AB00075838683978369807A8088A099A068145B
:100AC000790409F094CF12969C901297A5969FAE48
:100AD000A59713964C901397A6964FAEA69714968B
:100AE0005C901497A7965FAEA79715966C90159794
:100AF000A8966FAEA89716967C901697A9967FAE8B
:100B0000A99717968C901797AA968FAEAA971896C2
:100B10009C901897AB969FAEAB9719964C901997EF
:100B2000AC964FAEAC971A965C901A97AD965FAEA6
:100B3000AD971B966C901B97AE966FAEAE971C96BA
:100B40007C901C97AF967FAEAF971D968C901D97AB
:100B5000E0968FAEE0971E969C901E97E1969FAE12
:100B6000E1971F964C901F97E2964FAEE2975096F2
:100B70005C905097E3965FAEE39751966C905197D7
:100B8000E4966FAEE49752967C905297E5967FAECE
:100B9000E59753968C905397E6968FAEE6975496CA
:100BA0009C905497E7969FAEE79755964C90559733
:100BB000E8964FAEE89756965C905697E9965FAEEA
:100BC000E99757966C905797EA966FAEEA975896C2
:100BD0007C905897EB967FAEEB9759968C905997EF
:100BE000EC968FAEEC975A969C905A97ED969FAEE6
:100BF000ED975B964C905B97EE964FAEEE975C96BA
:100C00005C905C97EF965FAEEF975D966C905D970A
:100C1000C158DF4F6882CF57D0405E967C905E9778
:100C2000C058DF4F7882C058D0405F968C905F9755
:100C3000CF57DF4F8882C158D04090969C909097B4
:100C4000CE57DF4F9882C258D04091964C909197E2
:100C5000CD57DF4F4882C358D04092965C90929710
:100C6000CC57DF4F5882C458D04093966C909397DE
:100C7000CB57DF4F6882C558D04094967C909497AC
:100C8000CA57DF4F7882C658D04095968C9095977A
:100C9000C957DF4F8882C758D04096969C90969748
:100CA000C857DF4F9882C858D04097964C90979776
:100CB000C757DF4F4882C958D04098965C909897A4
:100CC000C657DF4F5882CA58D04099966C90999772
:100CD000C557DF4F6882CB58D0409A967C909A9740
:100CE000C457DF4F7882CC58D0409B968C909B970E
:100CF000C357DF4F8882CD58D0409C969C909C97DC
:100D0000C257DF4F9882CE58D0409D964C909D9709
:100D1000C157DF4F4882CF58D0409E965C909E9737
:100D2000C057DF4F5882C059D0409F966C909F9714
:100D3000CF56DF4F6882C159D040D0967C90D09773
:100D4000CE56DF4F7882C259D040D1968C90D19741
:100D5000CD56DF4F8882C359D040D2969C90D2970F
:100D6000CC56DF4F9882C459D040D3964C90D3973D
:100D7000CB56DF4F4882C559D040D4965C90D4976B
:100D8000CA56DF4F5882C659D040D5966C90D59739
:100D9000C956DF4F6882C759D040D6967C90D69707
:100DA000C856DF4F7882C859D040D7968C90D797D5
:100DB000C756DF4F8882C959D040D8969C90D897A3
:100DC000C656DF4F9882CA59D040D9964C90D997D1
:100DD000C556DF4F4882CB59D040DA965C90DA97FF
:100DE000C456DF4F5882CC59D040FD01FA9661803D
:100DF000C356DF4F6882CD59D0407280C256DF4F54
:100E00007882CE59D0408380C156DF4F8882CF5937
:100E1000D0409480C056DF4F9882C05AD040458061
:100E2000CF55DF4F4882C15AD0405680CE55DF4F54
:100E30005882C25AD0406780CD55DF4F6882C35A6E
:100E4000D0400AE811E02C961FAF0EAF2C97C45685
:100E5000DF4F4880CC59D0404982C356DF4F58807D
:100E6000CD59D0405AA27BA28CA29DA2CF55DF4F74
:100E70005880C15AD040CE55DF4F6880C25AD0400A
:100E8000CD55DF4F7880C35AD040CC56DF4F888095
:100E9000C459D0402E968FAE2E97CB56DF4F9880F8
:100EA000C559D0402F969FAE2F97CA56DF4F488026
:100EB000C659D04060964FAE6097C956DF4F8880C4
:100EC000C759D04061968FAE6197C856DF4F988062
:100ED000C859D04098AEC756DF4F4880C959D04056
:100EE00049AEC656DF4F8880CA59D0408AAEC55633
:100EF000DF4F9880CB59D0409BAEC457DF4F48801E
:100F0000CC58D04063964FAE6397C357DF4F88806D
:100F1000CD58D04064968FAE6497C257DF4F98800B
:100F2000CE58D04065969FAE6597C157DF4F488039
:100F3000CF58D04066964FAE6697C057DF4F888037
:100F4000C059D04067968FAE6797CF56DF4F9880D5
:100F5000C159D04068969FAE6897CE56DF4F488003
:100F6000C259D04069964FAE6997CD56DF4F888001
:100F7000C359D0406A968FAE6A97CC57DF4F98809E
:100F8000C458D040988ECB57DF4F4880C558D040CA
:100F90004AA6CA57DF4F8880C658D0408BA6C9578B
:100FA000DF4F9880C758D0409CA6C857DF4F488075
:100FB000C858D0404DA6C757DF4F8880C958D04089
:100FC0008EA6C657DF4F9880CA58D0409FA6C557F7
:100FD000DF4F4880CB58D040ED968FACED9789A677
:100FE000EE969FACEE9721969FAE2197EF968FAC31
:100FF000EF9722968FAE2297C158DF4F9880CF5738
:10100000D04062969FAE6297C058DF4F8880C0582C
:10101000D040A3968FAEA397CF57DF4F9880C1588B
:10102000D040A4969FAEA497CE57DF4F8880C25879
:10103000D040CC55DF4F8882C45AD040CD57DF4FC7
:101040009880C358D040CB55DF4F9882C55AD040C6
:10105000E5968FACE5976B968FAE6B97E6969FAC57
:10106000E6976C969FAE6C97E7968FACE7976D9678
:101070008FAE6D97E8969FACE8976E969FAE6E9791
:10108000E9968FACE9976F968FAE6F97EA969FAC13
:10109000EA97A0969FAEA097EB968FACEB97A196A0
:1010A0008FAEA197EC969FACEC97A2969FAEA297BD
:1010B000AD968FACAD9723968FAE2397AE969FAC2F
:1010C000AE9724969FAE2497AF968FACAF97259698
:1010D0008FAE2597E0969FACE09726969FAE269719
:1010E000E1968FACE19727968FAE2797E2969FAC5B
:1010F000E29728969FAE2897E3968FACE3972996C0
:101100008FAE2997E4969FACE4972A969FAE2A97D4
:10111000A5968FACA59788AAA6969FACA69799AAE4
:10112000A7968FACA7978AAAA8969FACA8979BAAC8
:10113000A9968FACA9978CAAAA969FACAA979DAAAC
:10114000AB968FACAB978EAAAC969FACAC979FAA90
:101150002C96EEADFFAD2C97A590B590C590D49090
:10116000A986BA86CB86DC862C96EEADFFAD2C9791
:101170003496C590D590E590F490F101F081F98B0B
:10118000F101F181FA8BF101F281FB8BF101F38125
:10119000FC8BF101F481FD8BF101F581FE8BF101F6
:1011A000F681FF8BF101F781FEA308E0200E311CD0
:1011B000288D3AA54BA55CA56DA57EA58FA5942D80
:1011C00002E30E946C2A490148A75FA3B62E172F9D
:1011D000F82FE92F288D3AA54BA55CA56DA57EA516
:1011E0008FA5942D0EE20E946C2A82269326A8A435
:1011F000A4262FA125272FA3B6261727F827E927EE
:10120000288D3AA54BA55CA56DA57EA58FA5942D2F
:1012100007E10E946C2A82268EAE93269FAEA426FA
:10122000ADAE8FA085268CAEB626BFA2172718A715
:10123000F827E92756019501A70160E070E080E0FA
:1012400090E000E20E94362A2D966FAF2D97CA5586
:10125000DF4F7883C65AD0408C01A984BA84CB84EE
:10126000DC8445015601C12CD12C76019A86AB86CF
:10127000BC86CD86DE86EF86F88AA82CA22AB92CF9
:10128000B32ACB84C42ADC84D52A2EAD3FAD4DAD24
:101290005CAD6FA178A58F2F9E2F2D96EFAC2D976B
:1012A000CA55DF4FF880C65AD0400E94872AA988C5
:1012B000BA88CB88DC88ED88FE880F891EA10E9441
:1012C000872AA88CA0942E968FAC2E97A820BAA41B
:1012D000B0942F969FAC2F97B920CBA4C094609662
:1012E0008FAC6097C820DCA4D09461969FAC6197C6
:1012F000D920EDA4E09488ACE820FEA4F09499AC49
:10130000F9200FA500958AAC0821142D10959BACEF
:101310001921E88D63968FAC6397E821AE26EAA584
:1013200064969FAC6497E921BE26EBA565968FACC9
:101330006597E821CE26ECA566969FAC6697E921D5
:10134000DE26EDA567968FAC6797E821EE26EEA521
:1013500068969FAC6897E921FE26EFA569968FAC49
:101360006997E8210E276A96EFAD6A97E4211E2758
:101370000E94872AA980BAA0CBA0DCA0EDA0F52C02
:1013800083010E94872A2AA339834EA35FA3F62FE5
:10139000E72F582E692E28A939A94AA95BA96CA95B
:1013A0007DA98EA99FA904E20E946C2AB22EC32EA9
:1013B000D42EE52EF62E172F4C0128A939A94AA9BB
:1013C0005BA96CA97DA98EA99FA90EE10E946C2A38
:1013D000B226C326D426E526F62617278826992680
:1013E00028A939A94AA95BA96CA97DA98EA99FA999
:1013F00009E10E946C2A2B253C254D255E256F2591
:1014000071272396AFAC23976B967FAC6B97A7247D
:1014100078A8A7202496BFAC24976C967FAC6C97D5
:10142000B72479A8B7202596CFAC25976D967FACC9
:101430006D97C7247AA8C7202696DFAC26976E96AC
:101440007FAC6E97D7247BA8D7202796EFAC279741
:101450006F967FAC6F97E7247CA8E7202896FFACB7
:101460002897A0967FACA097F7247DA8F72029960F
:101470000FAD2997A1967FACA19707257EA80721DC
:101480002A961FAD2A97A2967FACA29717257FA810
:101490007122798623967FAC23976B961FAD6B974D
:1014A0007122A72424967FAC24976C961FAD6C976D
:1014B0007122B72425967FAC25976D961FAD6D9749
:1014C0007122C72426967FAC26976E961FAD6E9725
:1014D0007122D72427967FAC27976F961FAD6F9701
:1014E0007122E72428967FAC2897A0961FADA0977D
:1014F0007122F72429967FAC2997A1961FADA19759
:10150000712207252A967FAC2A97A2961FADA29733
:10151000712219851725882599250E94872A28A7D1
:101520003CAF4DAF5EAF6FAF772E4C012AA1398132
:101530004EA15FA16F2F7E2F852D962DA9A42196F8
:10154000BFAC21972296CFAC22976296DFAC629710
:10155000A396EFACA397A496FFACA497CC55DF4F0E
:101560000881C45AD040CB55DF4F1881C55AD040AE
:101570000E94872A2987398B4A8B5B8B6C8B7D8BEA
:101580008E8B9F8B2AA139814EA15FA16F2F7E2F59
:10159000852D962DA8A4BCACCDACDEACEFACF72C61
:1015A00084010E94872A2EA33FA348A75CAF6DAF9A
:1015B0007EAF8FAF2D969FAF2D972C962EAD3FAD62
:1015C0002C97285F3F4F2C963FAF2EAF2C976B96F2
:1015D0005FAC6B9759A66C966FAC6C9721966FAE0B
:1015E00021976D967FAC6D9722967FAE22976E966F
:1015F0008FAC6E9762968FAE62976F969FAC6F9727
:10160000A3969FAEA397A0965FACA097A4965FAE5B
:10161000A497A1966FACA197CC55DF4F6882C45AAE
:10162000D040A2967FACA297CB55DF4F7882C55AA7
:10163000D0402E968FAC2E9789822F969FAC2F97F5
:101640009AA260965FAC60975BA261966FAC61975F
:101650006CA278AC7DA259AC6AAC7BAC88A099A096
:101660008214930409F01EC60AE012E02C961FAF04
:101670000EAF2C9721E030E039A328A3E8A1F9A10F
:10168000EF70FF27389683E0EE0FFF1F8A95E1F792
:10169000EA0FFB1F8F010E5F1F4F5280F801618020
:1016A000728083809480A580B680C780E8A1F9A16C
:1016B0003D96EF70FF27389693E0EE0FFF1F9A9547
:1016C000E1F7EA0FFB1F8F010E5F1F4F3280F80119
:1016D000F181FAA3F801F281FBA3F801F381FCA3E5
:1016E000F801F481FDA3F801F581F9A7F801F6816D
:1016F0002196FFAF2197F801F7812296FFAF22973D
:10170000E8A1E15FEF70EE2EF12CFA82E982252D3F
:10171000362D472D582D692D7A2D8B2D9C2D0FE3BD
:101720000E946C2AD22EE32EF42E152FF62FE72FCF
:10173000A3968FAFA39762969FAF6297252D362D04
:10174000472D582D692D7A2D8B2D9C2D08E30E9455
:101750006C2AD226E326F4261527F627E727A39638
:101760002FACA397282662960FAD62970927629641
:101770000FAF6297252D362D472D582D692D7A2DC7
:101780008B2D9C2D07E00E94512A2D253E254F25AB
:1017900051276F277E27E981FA81389613E0EE0FF3
:1017A000FF1F1A95E1F73D016E0E7F1E7A82698256
:1017B000F3013296C855DF4FF983E883C85AD04009
:1017C00082256296FFAD62979F27F301A280C855DC
:1017D000DF4FE881F981C85AD040B180C280D38000
:1017E000E480F580068117810E94872A08A119A14B
:1017F000085F1F4F0F701127085F1F4FE3E0000FB6
:10180000111FEA95E1F70A0F1B1F4801F2E08F0E46
:10181000911CF801A280F401B180C280D380E480E1
:10182000F580068117810E94872AE22F532E3A0104
:101830004B01F82FA3969FAFA397232D3AA14BA15D
:101840005CA16DA179A521968FAD219722969FADC0
:1018500022970DE20E946C2A59016A017B01282E11
:10186000192F232D3AA14BA15CA16DA179A5219639
:101870008FAD219722969FAD229703E00E946C2A9C
:10188000A226B326C426D526E626F726282619271B
:10189000232D3AA14BA15CA16DA179A521968FAD15
:1018A000219722969FAD229706E00E94512AA226F8
:1018B000B326C426D526E626F726022D08271927A3
:1018C0002E2F352DA301B4018F2FA3969FADA39783
:1018D0000E94872A822E632E542E5AA3362E272E3C
:1018E0008BA39CA3E981FA812283C855DF4FE8814D
:1018F000F981C85AD040318342835383648375830E
:10190000868397832C96EEADFFAD2C97A590B5906E
:10191000C590D490A982BA82CB82DC822C96EEAD9F
:10192000FFAD2C973496C590D590E590F49029851D
:1019300039894A895B896C897D898E899F8902E30F
:101940000E946C2A722E932E49A75DA3B62E172FE4
:10195000F82FE92F298539894A895B896C897D8926
:101960008E899F890EE20E946C2A72269326A9A472
:10197000A426A9A6ADA0A526ADA2B6261727F827AE
:10198000E927298539894A895B896C897D898E890E
:101990009F8907E10E946C2A72269326A9A4A42697
:1019A0002296AFAE2297ADA0A5262196AFAE219785
:1019B000B626BDA2172719A7F827E92756019501D2
:1019C000A70160E070E080E090E000E20E94362A2B
:1019D00062966FAF6297A3967FAFA397A4968FAFDF
:1019E000A497CC55DF4F9883C45AD040C980DA8081
:1019F000EB80FC8056016701E12CF12C8701BA8253
:101A0000CB82DC82ED82FE820F831887A22AB32A62
:101A1000C42AD52A272D392D22964FAD22972196FB
:101A20005FAD21976DA179A58F2F9E2F6296EFACA8
:101A30006297A396FFACA397A4960FADA497CC553D
:101A4000DF4F1881C45AD0400E94872AA984A094ED
:101A500063967FAC6397A720B988B09464969FACD7
:101A60006497B920CA88C09465967FAC6597C720F3
:101A7000DB88D09466969FAC6697D920EC88E0947A
:101A800067967FAC6797E720FD88F09468969FACD7
:101A90006897F9200E89009569967FAC69970721B0
:101AA0001F8910956A969FAC6A971921E985788CF1
:101AB000E721AE26E9899AA4E921BE26EA897BA41A
:101AC000E721CE26EB899CA4E921DE26EC897DA4C2
:101AD000E721EE26ED899EA4E921FE26EE897FA46A
:101AE000E7210E27EF89E4211E270E94872AA82CD0
:101AF000B62CC52CDAA0E32CF22C0BA11CA10E9461
:101B0000872A2E96AFAC2E972F96BFAC2F97609654
:101B1000CFAC60976196DFAC6197E8ACF9AC0AADE9
:101B20001BAD0E94872A21962FAF219739A72E96A9
:101B30004FAF2E972F965FAF2F97F62FE72F609618
:101B40008FAF609761969FAF61972EA13FA148A587
:101B50005CAD6DAD7EAD8FAD2D969FAD2D9704E242
:101B60000E946C2AB22EC32ED42EE52EF62E172FED
:101B70004C012EA13FA148A55CAD6DAD7EAD8FADF2
:101B80002D969FAD2D970EE10E946C2AB226C3269A
:101B9000D426E526F6261727882699262EA13FA1CA
:101BA00048A55CAD6DAD7EAD8FAD2D969FAD2D97EB
:101BB00009E10E946C2A2B253C254D255E256F25C9
:101BC0007127A8A823965FAC2397A5246EA0A62012
:101BD000B9A824967FAC2497B7245FA0B520CAA8E3
:101BE00025966FAC2597C62478A4C720DBA8269637
:101BF0005FAC2697D5246CACD620ECA827967FAC9A
:101C00002797E7245DACE520FDA828966FAC2897C0
:101C1000F6247EACF7200EA929965FAC29970525FE
:101C20006FAC06211FA92A967FAC2A9717252D96FF
:101C30005FAC2D97152178A823966FAC239776205B
:101C4000A72479A824965FAC24977520B7247AA896
:101C500025966FAC25977620C7247BA826965FAC87
:101C600026977520D7247CA827966FAC27977620D7
:101C7000E7247DA828965FAC28977520F7247EA8D6
:101C800029966FAC2997762007257FA82A965FAC06
:101C90002A9775201725882599250E94872A28AF1D
:101CA00039AF4AAF5BAF6AA37BA38CA39DA32196F8
:101CB0002FAD219739A52E964FAD2E972F965FAD5C
:101CC0002F976F2F7E2F60968FAD609761969FAD97
:101CD00061976B96AFAC6B976C96BFAC6C976D963B
:101CE000CFAC6D976E96DFAC6E976F96EFAC6F973B
:101CF000A096FFACA097A1960FADA197A2961FAD9D
:101D0000A2970E94872A2983232E342E552E3B0129
:101D10004C0121962FAD219739A52E964FAD2E97C8
:101D20002F965FAD2F976F2F7E2F60968FAD6097A8
:101D300061969FAD6197A8ACB9ACCAACDBACEAA028
:101D4000FBA00CA11DA10E94872A59016A017B01F9
:101D50008C0128A139A12F5F3F4F39A328A32C96CE
:101D60004EAD5FAD2C97485F5F4F2C965FAF4EAF87
:101D70002C9723965FAD23976B965FAF6B97249656
:101D80006FAD24976C966FAF6C9725967FAD2597B6
:101D90006D967FAF6D9726968FAD26976E968FAF17
:101DA0006E9727969FAD27976F969FAF6F97289650
:101DB000EFAD2897A096EFAFA0972996FFAD299792
:101DC000A196FFAFA1972A962FAD2A97A2962FAF83
:101DD000A29763963FAD63972E963FAF2E9764967A
:101DE0004FAD64972F964FAF2F9765965FAD659770
:101DF00060965FAF609766966FAD669761966FAFBE
:101E0000619767967FAD679778AF68968FAD689753
:101E100089AF69969FAD69979AAF6A96EFAD6A9759
:101E2000EBAF28A139A12134310509F0F4C2A59600
:101E30002FADA597A6963FADA697A7964FADA797AE
:101E4000A8965FADA897A9966FADA997AA967FAD02
:101E5000AA97AB968FADAB97AC969FADAC970E940F
:101E6000872A12962C93129713963C9313971496E5
:101E70004C93149715965C93159716966C9316973A
:101E800017967C93179718968C93189719969C938E
:101E90001997AD962FADAD97AE963FADAE97AF9675
:101EA0004FADAF97E0965FADE097E1966FADE197EC
:101EB000E2967FADE297E3968FADE397E4969FAD10
:101EC000E497AEA0BFA0C8A4DCACEDACFEAC0FADF7
:101ED0002D961FAD2D970E94872A1A962C931A973C
:101EE0001B963C931B971C964C931C971D965C93DA
:101EF0001D971E966C931E971F967C931F97509666
:101F00008C93509751969C935197E5962FADE597FA
:101F1000E6963FADE697E7964FADE797E8965FAD5B
:101F2000E897E9966FADE997EA967FADEA97EB9669
:101F30008FADEB97EC969FADEC97A8A8B9A8CAA86F
:101F4000DBA8ECA8FDA80EA91FA90E94872A52961B
:101F50002C93529753963C93539754964C93549783
:101F600055965C93559756966C93569757967C93D7
:101F7000579758968C93589759969C935997ED96E6
:101F80002FADED97EE963FADEE97EF964FADEF97F5
:101F9000C158DF4F5881CF57D040C058DF4F6881BC
:101FA000C058D040CF57DF4F7881C158D040CE576E
:101FB000DF4F8881C258D040CD57DF4F9881C3583A
:101FC000D0402396AFAC23972496BFAC2497259698
:101FD000CFAC25972696DFAC26972796EFAC2797B0
:101FE0002896FFAC28970F2F2A961FAD2A970E949C
:101FF000872A5A962C935A975B963C935B975C96EC
:102000004C935C975D965C935D975E966C935E9740
:102010005F967C935F9790968C93909791969C9304
:102020009197CC57DF4F2881C458D040CB57DF4F12
:102030003881C558D040CA57DF4F4881C658D04074
:10204000C957DF4F5881C758D040C857DF4F688104
:10205000C858D040C757DF4F7881C958D040C657BD
:10206000DF4F8881CA58D040C557DF4F9881CB5881
:10207000D040A980B22CC32CD52C730184010E94BE
:10208000872A92962C93929793963C939397949643
:102090004C93949795965C93959796966C93969798
:1020A00097967C93979798968C93989799969C93EC
:1020B0009997C457DF4F2881CC58D040C357DF4F82
:1020C0003881CD58D040C257DF4F4881CE58D040DC
:1020D000C157DF4F5881CF58D040C057DF4F68817C
:1020E000C059D040CF56DF4F7881C159D040CE562D
:1020F000DF4F8881C259D040CD56DF4F9881C359F8
:10210000D040A984B988CA88DB88EC88FD880E890C
:102110001F890E94872A9A962C939A979B963C93A4
:102120009B979C964C939C979D965C939D979E96AF
:102130006C939E979F967C939F97D0968C93D09705
:10214000D1969C93D197CC56DF4F2881C459D0406B
:10215000CB56DF4F3881C559D040CA56DF4F488132
:10216000C659D040C956DF4F5881C759D040C856CC
:10217000DF4F6881C859D040C756DF4F7881C959B1
:10218000D040C656DF4F8881CA59D040C556DF4F70
:102190009881CB59D040A88CBAA4CBA4DCA4EDA4E0
:1021A000FEA40FA5142D0E94872AD2962C93D297B5
:1021B000D3963C93D397D4964C93D497D5965C936F
:1021C000D597D6966C93D697D7967C93D797D89673
:1021D0008C93D897D9969C93D997C456DF4F288172
:1021E000CC59D040C356DF4F3881CD59D040C2566C
:1021F000DF4F4881CE59D040C156DF4F5881CF596B
:10220000D040C056DF4F6881C05AD040CF55DF4F15
:102210007881C15AD040CE55DF4F8881C25AD04014
:10222000CD55DF4F9881C35AD0406396AFAC6397CA
:102230006496BFAC64976596CFAC65976696DFAC45
:1022400066976796EFAC67976896FFAC6897699654
:102250000FAD69971E2F0E94872AFD01FA96DA9624
:102260002C9331834283538364837583868397835E
:10227000C755DF4F0FB6F894DEBF0FBECDBFDF915D
:10228000CF911F910F91FF90EF90DF90CF90BF9073
:10229000AF909F908F907F906F905F904F903F9006
:1022A0002F90089563968FAC63972E968FAE2E97DE
:1022B00064969FAC64972F969FAE2F9765968FACD0
:1022C000659760968FAE609766969FAC66976196AD
:1022D0009FAE619767968FAC679788AE68969FAC04
:1022E000689799AE69968FAC69978AAE6A969FACEB
:1022F0006A979BAE888C63968FAE63979AA4649618
:102300009FAE64978BA465968FAE65979CA46696E6
:102310009FAE66978DA467968FAE67979EA46896CA
:102320009FAE68978FA469968FAE69976A964FAEF5
:102330006A979984988E49884AA68A888BA69B8832
:102340009CA64C884DA68D888EA69E889FA64F88F9
:1023500023968FAC23976B968FAE6B9724969FAC8A
:1023600024976C969FAE6C9725968FAC25976D96AB
:102370008FAE6D9726969FAC26976E969FAE6E9702
:1023800027968FAC27976F968FAE6F9728969FAC46
:102390002897A0969FAEA09729968FAC2997A196D3
:1023A0008FAEA1972A969FAC2A97A2969FAEA2972E
:1023B00088A823968FAE239799A824969FAE24973A
:1023C0008AA825968FAE25979BA826969FAE26971E
:1023D0008CA827968FAE27979DA828969FAE289702
:1023E0008EA829968FAE29979FA82A969FAE2A97E6
:1023F0008EA088AA9FA099AA88A48AAA9CAC9BAA0E
:102400008DAC8CAA9EAC9DAA8FAC8EAA2D969FAC4B
:102410002D970C94A708388D63963FAF63974AA514
:1024200064964FAF64975BA565965FAF65976CA5A3
:1024300066966FAF66977DA567967FAF67978EA507
:1024400068968FAF68979FA569969FAF69976A96C0
:102450004FAE6A974984488E49884AA64A884BA657
:102460004B884CA64C884DA64D884EA64E884FA64C
:102470004F88E981E987298A3A8A5B8A6C8A7D8A52
:102480008E8A9F8A58A823965FAE239769A82496C0
:102490006FAE24977AA825967FAE25978BA82696AF
:1024A0008FAE26979CA827969FAE27975DA8289663
:1024B0005FAE28976EA829966FAE29977FA82A96B7
:1024C0007FAE2A978EA088AA9FA099AA58A45AAA3C
:1024D0006CAC6BAA7DAC7CAA8EAC8DAA9FAC9EAA7C
:1024E0002D965FAC2D975FAAAEA2BFA2C8A6DCAEA8
:1024F000EDAEFEAE0FAF2D961FAF2D97BFC880E893
:1025000090E0089580E490E008950F931F93CF9397
:10251000DF9300E010E021E030E0081B190B2109F7
:102520003109890101501109FB01DA01AB01405E5B
:102530005F4F219131918D919D91EF0122978227DB
:102540009327802391238227932799838883E417F5
:10255000F50779F7DF91CF911F910F9108956F9251
:102560007F928F929F92AF92BF92CF92DF92EF9223
:10257000FF920F931F93CF93DF93FC013B01CA019E
:10258000EF01AB01405E5F4F9F01C12CD12C760162
:10259000D3010D911D913D01DC016D917D91CD0126
:1025A0006701EE24FF2446015701B1E08B229924F4
:1025B000AA24BB246801F12CE12CC61AD70AE10831
:1025C000F108C818D908EA08FB08D901CD92DD92B4
:1025D0009D0146155705E1F66701EE24FF24B3E19E
:1025E000CB22DD24EE24FF2480819181B0E0A0E0A5
:1025F0008C199D09AE09BF09918380839F01225EDA
:102600003F4FCD01AA27BB2781709927AA27BB2757
:102610004A815B8170E060E07A018B01E81AF90A77
:102620000A0B1B0BD801C701A701FB82EA82229685
:102630002C173D0731F75F77578F468FDF91CF918A
:102640001F910F91FF90EF90DF90CF90BF90AF90D0
:102650009F908F907F906F9008956F927F928F924E
:102660009F92AF92BF92CF92DF92EF92FF920F9321
:102670001F93CF93DF93CDB7DEB7A0970FB6F89433
:10268000DEBF0FBECDBFFC013B01CA019F017B0134
:1026900040E2E40EF11C8F01812C912C5401D301F6
:1026A000CD90DD903D01DC014D915D91CD0170E05B
:1026B00060E04C0D5D1D611D711D840E951EA61EF2
:1026C000B71ED8018D929D928D014501AA24BB248D
:1026D0006E147F0421F78E010F5F1F4FAF01405E24
:1026E0005F4FC801A3E1CA2ED12CE12CF12CD901F6
:1026F0006D917D919D01C60ED71EE11CF11CDC0180
:10270000CD92DD92CD016701EE24FF2442175307DD
:1027100071F78F8D98A19C01330F220B322F9F7779
:1027200098A38F8F60817181D8018D919D918D01CA
:102730008627972782239323862797278193919330
:10274000E417F50779F7A0960FB6F894DEBF0FBE31
:10275000CDBFDF91CF911F910F91FF90EF90DF9050
:10276000CF90BF90AF909F908F907F906F90089583
:102770002F923F924F925F926F927F928F929F9291
:10278000AF92BF92CF92DF92EF92FF920F931F937F
:10279000CF93DF93CDB7DEB7C454D1090FB6F89409
:1027A000DEBF0FBECDBF5C016B01FA01E590F49076
:1027B0004B0120E2820E911C8E010F5F1F4FFB0127
:1027C000412C512C320121913191D7010E94202AB4
:1027D000460E571E681E791ED8014D925D928D01DE
:1027E000230166247724E815F90569F75AA249A25E
:1027F0007E01B3E2EB0EF11C02E010E0FA01E00F03
:10280000F11F2591349123963FAF2EAF2397E1E03E
:10281000F0E0EC0FFD1FE00FF11F1601412C512CD1
:102820003201D1012D913D911D01DF018D919D91CD
:102830004D0125969FAF8EAF25972396AEADBFADC8
:1028400023970E94202A2596AEADBFAD25976A0F2B
:102850007B1F811D911D460E571E681E791E5182D9
:102860004082230166247724F4018E149F04C9F664
:10287000419251927F010E5F1F4F0032110509F006
:10288000BDCFBE016F5F7F4FC5010E94C802CC5B08
:10289000DF4F0FB6F894DEBF0FBECDBFDF91CF91F3
:1028A0001F910F91FF90EF90DF90CF90BF90AF906E
:1028B0009F908F907F906F905F904F903F902F9060
:1028C00008952F923F924F925F926F927F928F92D4
:1028D0009F92AF92BF92CF92DF92EF92FF920F93AF
:1028E0001F93CF93DF93FC01EB01C880D9807C015B
:1028F0003A0180E2680E711C8A01812C912C5401EE
:10290000D8012D913D918D01D6010E94202A860E7D
:10291000971EA81EB91ED7018D929D927D0145017B
:10292000AA24BB246016710659F791A280A28E01D9
:102930000E5F1F4FB2961E01B0E22B0E311CD80164
:102940006D907D908D01EF01A0976A01812C912CF3
:102950005401D6012D913D916D01DE014D905D90A8
:102960007D01D3010E94202A640D751D811D911DDA
:10297000860E971EA81EB91E998288824501AA2438
:10298000BB24E701EE16FF0621F7F7018192919231
:1029900020163106A1F6DF91CF911F910F91FF9084
:1029A000EF90DF90CF90BF90AF909F908F907F90EF
:1029B0006F905F904F903F902F9008950F931F93CB
:1029C000CF93DF93CDB7DEB7C054D1090FB6F894DB
:1029D000DEBF0FBECDBF8C01CE0101960E946114F7
:1029E000BE016F5F7F4FC8010E94C802C05CDF4F0D
:1029F0000FB6F894DEBF0FBECDBFDF91CF911F9110
:102A00000F910895AB010C94DE14680F791FFC013F
:102A10001082019668177907D1F70895CF93DF9355
:102A2000EC0161ED70E002960E940515E881F981E4
:102A30000084F185E02DCE01DF91CF9109942EE045
:102A400031E0FC0121933193CF0161ED70E00C94F2
:102A5000051560E870E00C94051560E270E00C94D8
:102A60000515CF92DF92EF92FF920F931F93CF93B2
:102A7000DF93CDB7DEB7A0970FB6F894DEBF0FBED9
:102A8000CDBF8C016B01CE0101960E94021539E089
:102A9000F32EBE016F5F7F4FCB010E940215FA94A7
:102AA000F110F7CFA601BE016F5F7F4FC8010E94F2
:102AB000DE1427E1F22E9AE0E92EBE016F5F7F4F10
:102AC000CB010E940215EA94E110F7CFAE014F5FEF
:102AD0005F4FB801C8010E94DE14FA94F110EBCFE9
:102AE000B801CE0101960E940215AE014F5F5F4F03
:102AF000B801C8010E94DE1488E0F82EBE016F5FA5
:102B00007F4FCB010E940215AE014F5F5F4FB801AE
:102B1000C8010E94DE14FA94F110F0CFCE010196A4
:102B20000E942D15A0960FB6F894DEBF0FBECDBF44
:102B3000DF91CF911F910F91FF90EF90DF90CF9099
:102B400008950F931F93CF93DF93EC018B010E94A5
:102B50003115BE01CE010E940215BE01CE010E94B8
:102B60000215A801BE01CE010E94DE14BE01CE01F5
:102B70000E940215BE01CE010E940215A801BE01ED
:102B8000CE010E94DE14BE01CE010E940215A801F2
:102B9000BE01CE01DF91CF911F910F910C94DE14F5
:102BA0002F923F924F925F926F927F928F929F925D
:102BB000AF92BF92CF92DF92EF92FF920F931F934B
:102BC000CF93DF93CDB7DEB72A970FB6F894DEBF69
:102BD0000FBECDBF2C01962E872E1901F90125912C
:102BE00034913A8329835C01E62FF72FC12CD12C35
:102BF0007601712C612C21913191A981BA810E94B9
:102C0000202AC60ED71EE81EF91ED501CD92DD92F0
:102C10005D016701EE24FF24BFEF6B1A7B0A4615A6
:102C2000570549F75301AA0CBB1CA40CB51CF501B0
:102C3000D182C0829801220F331F3C832B8342E054
:102C400050E0F101E40FF51F859194919E838D83EF
:102C5000F201E40FF51F99828A82C12CD12C7601F2
:102C600010E000E0A981BA812D913D91BA83A9833A
:102C7000DF018D919D91BA87A98798878F83AD8158
:102C8000BE810E94202AAF81B8856A0F7B1F811DFB
:102C9000911DC60ED71EE81EF91ED182C0826701A3
:102CA000EE24FF240F5F1F4FE985FA856016710639
:102CB000C9F6F501E40FF51FD182C0824E5F5F4F68
:102CC000EB81FC81E417F50709F0BBCF2A960FB61C
:102CD000F894DEBF0FBECDBFDF91CF911F910F9152
:102CE000FF90EF90DF90CF90BF90AF909F908F902C
:102CF0007F906F905F904F903F902F9008958F92AC
:102D00009F92AF92BF92CF92DF92EF92FF920F937A
:102D10001F93CF93DF93CDB7DEB7C256D1090FB65D
:102D2000F894DEBF0FBECDBF6C017B0101E110E066
:102D300028E630E040E250E0CE0101960E94D01536
:102D400000E110E02AE234E041E150E0BE016F5BB7
:102D50007F4FCE0101960E94D01587019E012F5F03
:102D60003F4FA701405E5F4F80E090E0DC01F9013A
:102D7000619171919F01CD01AA27BB274C015D0193
:102D8000F1E08F229924AA24BB24F801808191814B
:102D9000B0E0A0E0861B970BA109B1098819990939
:102DA000AA09BB09819391938F014E175F07F9F62A
:102DB000B701C6010E945102B601C6010E9451022C
:102DC00062E670E0CE0101960E940515CE59DF4FF4
:102DD0000FB6F894DEBF0FBECDBFDF91CF911F912C
:102DE0000F91FF90EF90DF90CF90BF90AF909F90AA
:102DF0008F900895FC0101900020E9F73197AF0111
:102E0000481B590BBC0183E591E00C948303CF93DD
:102E1000DF93FC01448155816081718183E591E0FC
:102E20000E948303EC0184E391E00E94FA168C0F68
:102E30009D1FDF91CF9108952F923F924F925F9205
:102E40006F927F928F929F92AF92BF92CF92DF92BA
:102E5000EF92FF920F931F93CF93DF9300D000D098
:102E6000CDB7DEB74C017A8369835C834B83FC0169
:102E7000EE53FF4F20803180428053806480758004
:102E8000B681A7819A0140E050E060E070E080E008
:102E900090E003E00E94362A5101620173010B2F7A
:102EA0001A2F0E94872A20833183428353836483AD
:102EB0007583868397830E949C2AA0F4389620818C
:102EC0003181428153816481758186819781A1E03E
:102ED0000E94902A208331834283538364837583C5
:102EE00086839783340122ED620E711C00E8240171
:102EF00032E4430E511C8B819C81892B69F1F301D3
:102F00008081102F181B2B813C811217130611F0A2
:102F100008F01B81212E312CA10169817A81840D59
:102F2000952D911D0E949F2CF3018081180F108315
:102F30002B813C81221933093C832B8389819A811F
:102F4000820D931D9A8389831038A9F6C4010E94CB
:102F5000D004F3011082CFCF0F900F900F900F90FD
:102F6000DF91CF911F910F91FF90EF90DF90CF9065
:102F7000BF90AF909F908F907F906F905F904F9099
:102F80003F902F9008954F925F926F927F928F9211
:102F90009F92AF92BF92CF92DF92EF92FF920F93E8
:102FA0001F93CF93DF93CDB7DEB760970FB6F8943A
:102FB000DEBF0FBECDBF7C015B01942E852E6C0160
:102FC00002E4C00ED11CFC01EE52FF4F8081D601FD
:102FD000A80FB11D870106531F4F1A83098380373D
:102FE00008F099C180E88C93808190E04FE650E032
:102FF000481B590B019670E060E08C0D9D1D0E94EE
:10300000A82CF80160817181828193810E942F2A0E
:103010002B013C0120813181428153816481758182
:103020008681978100E20E94512A942F852FA90161
:10303000692F782F872F9927AA27BB27342F22277C
:1030400011270027082B192B2A2B3B2BBB27A72F37
:10305000962F852F8827AA27BB27802B912BA22B61
:10306000B32B762F652F542F4427442755277727D6
:10307000842B952BA62BB72B8C019D0140E050E0B3
:10308000BA0109831A832B833C834D835E836F834C
:1030900078879301820140E050E0BA0149861A879F
:1030A0006B863C874D875E876F87788B92014B8557
:1030B0005C8560E070E080E090E000E20E94362AEB
:1030C0001981212BAA813A2BEB814E2BFC815F2B9E
:1030D000F701EE54FF4F208331834283538364838F
:1030E00075838683978370966081718182819381D5
:1030F0000E942F2A2B013C01208131814281538182
:1031000064817581868197810E94512A942F852F31
:10311000A901692F782F872F9927AA27BB27342F3A
:10312000222711270027082B192B2A2B3B2BBB27E3
:10313000A72F962F852F8827AA27BB27802B912B77
:10314000A22BB32B762F652F542F442744275527C6
:103150007727842B952BA62BB72B8C019D0140E064
:1031600050E0BA0109831A832B833C834D835E832D
:103170006F8378879301820140E050E0BA0149866D
:103180001A876B863C874D875E876F87788B9201A5
:103190004B855C8560E070E080E090E000E20E949A
:1031A000362A1981212BAA813A2BEB814E2BFC81E7
:1031B0005F2BF701E654FF4F208331834283538313
:1031C0006483758386839783C7010E94D004F701C7
:1031D0003296DF0160817181828193810E942F2A62
:1031E0002B013C0138962C9111963C911197129627
:1031F0004C91129713965C91139714966C911497B7
:1032000015967C91159716968C91169717969C910A
:1032100000E20E94512A942F852FA901692F782F4F
:10322000872F9927AA27BB27342F2227112700276A
:10323000082B192B2A2B3B2BBB27A72F962F852F2B
:103240008827AA27BB27802B912BA22BB32B762F65
:10325000652F542F4427442755277727842B952BF8
:10326000A62BB72B8C019D0140E050E0BA010983E9
:103270001A832B833C834D835E836F83788793010E
:10328000820140E050E0BA0149861A876B863C878C
:103290004D875E876F87788B92014B855C8560E0F8
:1032A00070E080E090E000E20E94362A1981212B34
:1032B00020AF2A81322B31AF3B81432B42AF4C816F
:1032C000542B53AF64AF75AF86AF97AFEC15FD05C8
:1032D00009F07FCF492D582D4134510510F040E4BD
:1032E00050E0B601C50160960FB6F894DEBF0FBE80
:1032F000CDBFDF91CF911F910F91FF90EF90DF90A5
:10330000CF90BF90AF909F908F907F906F905F9085
:103310004F900C949F2C80E88C93808190E04FE735
:1033200050E0481B590B019670E060E08C0D9D1D2C
:103330000E94A82CC7010E94D00480E7F6011192D8
:103340008A95E9F7E981FA815DCE8F929F92AF92DB
:10335000BF92CF92DF92EF92FF920F93CF93DF93C2
:10336000EC016B014A017901E881F9810680F7815E
:10337000E02D09955C01E881F9810084F185E02D5B
:10338000CE010995AE14BF04C8F0A701B401C6016F
:103390000E949F2CA5014E195F09602F70E0EC0C74
:1033A000FD1CC7010E94A82CF601EE15FF0541F196
:1033B0008191DF01119780278C93F7CFE881F98104
:1033C0000284F385E02DA701B401CE010995E881BF
:1033D000F9810480F581E02DCE0109957C01E88119
:1033E000F9810484F585E02DAC01B601CE01099583
:1033F000E881F9810084F185E02DCE010995CACFDD
:10340000DF91CF910F91FF90EF90DF90CF90BF9021
:10341000AF909F908F9008956F927F928F929F921E
:10342000AF92BF92CF92DF92EF92FF920F931F93D2
:10343000CF93DF93CDB7DEB7C054D1090FB6F89460
:10344000DEBF0FBECDBF7C014B013A0169015801BF
:10345000DC01ED91FC910484F585E02D40E450E021
:10346000BE016F5F7F4F0995B7016E5B7F4F0CE523
:103470009301A401C7010E94A519F701EE53FF4F64
:103480002081318142815381648175818681978158
:103490003C5F4F4F5F4F6F4F7F4F8F4F9F4F20834A
:1034A0003183428353836483758386839783C70103
:1034B0000E94D004D701ED91FC910284F385E02DA8
:1034C00040E450E0BE016F5F7F4FC7010995D7010F
:1034D000ED91FC910484F585E02DA501B601C701AD
:1034E000099560E470E0CE0101960E940515C05C6C
:1034F000DF4F0FB6F894DEBF0FBECDBFDF91CF9187
:103500001F910F91FF90EF90DF90CF90BF90AF9001
:103510009F908F907F906F9008950F93CF93DF933C
:10352000EC019A018E5B9F4F06E3AB01BC01CE011B
:103530000E94A519FE01EE53FF4F20813181428187
:10354000538164817581868197813C5F4F4F5F4FC6
:103550006F4F7F4F8F4F9F4F208331834283538321
:103560006483758386839783CE01DF91CF910F911A
:103570000C94D0042F923F924F925F926F927F9261
:103580008F929F92AF92BF92CF92DF92EF92FF9273
:103590000F931F93CF93DF93CDB7DEB7C950D140C0
:1035A0000FB6F894DEBF0FBECDBF8C01C85FDE4FF3
:1035B00079836883C850D1407A01C95FDE4F288380
:1035C000C750D14080E8F80111928A95E9F781E06F
:1035D00090E0F80191A380A3E05CFF4F918380838A
:1035E0008FEFCE5FDE4F8883C250D140CF5FDE4F7A
:1035F0001882C150D14044244394512C180190E2C8
:10360000290E311C3A0180E2680E711CC801805AF3
:103610009F4FCD5FDE4F99838883C350D1405A01BD
:1036200090E6A90EB11CCB5FDE4FE883C550D140B8
:10363000CA5FDE4FF883C650D1404A01E0E48E0EE7
:10364000911CCF5FDE4F8881C150D140E82FF0E060
:10365000EE0FFF1FC85FDE4F88819981C850D140AF
:10366000E80FF91FC080D180C420D520C95FDE4F8C
:103670009881C750D140911104C0C114D10409F4FC
:10368000D9C0A801B101CE018F579F4F0E94AF1240
:10369000A701B301CE018F539F4F0E94AF12AE011D
:1036A0004F535F4FBE016F577F4FCB010E94DE1417
:1036B000A801B101CE018F559F4F0E942D13A70184
:1036C000B301CE018F539F4F0E942D13AE014F5374
:1036D0005F4FBE016F557F4FCB010E94DE14A501E5
:1036E000CD5FDE4F68817981C350D140CE018F53C9
:1036F0009F4F0E94DE144AE054E0BE016F537F4F9B
:10370000CB010E94B813A401CB5FDE4F6881C55086
:10371000D140CA5FDE4F7881C650D140CE018F5173
:103720009F4F0E94DE14AE014F515F4FBA01CA0194
:103730000E942D13AE014F575F4FBE016F557F4F53
:10374000CE018F599F4F0E94AF12AE014F535F4F72
:10375000BE016F517F4FCE018F5B9F4F0E94AF1212
:10376000AE014F535F4FBE016F517F4FCB010E949F
:103770002D13AE014F575F4FBE016F557F4FCB01E9
:103780000E942D13C95FDE4FE881C750D140AE01C2
:103790004F5B5F4FBE016F597F4FEE2309F405C1A8
:1037A000CE0101960E94DE14AE014F555F4FBE015F
:1037B0006F517F4FCE0181960E94DE14AE014F51B2
:1037C0005F4FBE016F5B7F4FCB010E94DE14AE01E5
:1037D0004F555F4FBE016F597F4FCB010E94DE14E2
:1037E000AE014F5F5F4FB801C6010E948512AE0166
:1037F0004F5D5F4FB101C6010E948512AE014F5B64
:103800005F4FCB5FDE4F6881C550D140CA5FDE4F4E
:103810007881C650D140C6010E948512AE014F5931
:103820005F4FCD5FDE4F68817981C350D140C601C3
:103830000E948512A701B301CE018F579F4F0E94AE
:10384000AF12BE016F577F4FCB010E940215A70137
:10385000B301CE018F559F4F0E942D13BE016F55AE
:103860007F4FCB010E940215B501CE018F539F4FB0
:103870000E9402154AE054E0BE016F537F4FCB0116
:103880000E94B813B401CE018F519F4F0E940215C0
:10389000AE014F515F4FBA01CA010E942D13AE0114
:1038A0004F575F4FBE016F557F4FC5010E94AF124A
:1038B000AE014F535F4FBE016F517F4FC4010E9455
:1038C000AF12AE014F535F4FBE016F517F4FCB011F
:1038D0000E942D13AE014F575F4FBE016F557F4FB2
:1038E000CB010E942D13A401B501C7010E94DE1473
:1038F000AE014F555F4FBE016F517F4FC3010E9414
:10390000DE14AE014F515F4FB401C4010E94DE14BA
:10391000AE014F555F4FB501C5010E94DE14411441
:10392000F0E85F0609F46EC0440C551CCE5FDE4F14
:103930009881C250D1409150CE5FDE4F9883C250E3
:10394000D14091117ECECE0101960E942915CE0163
:103950008F579F4F0E942D15CE018F559F4F0E946C
:103960002D15CE018F539F4F0E942D15CE018F51E3
:103970009F4F0E942D15C75FDE4F0FB6F894DEBF34
:103980000FBECDBFDF91CF911F910F91FF90EF90B0
:10399000DF90CF90BF90AF909F908F907F906F906F
:1039A0005F904F903F902F900895C8010E94DE14C1
:1039B000AE014F555F4FBE016F517F4FC1010E9455
:1039C000DE14AE014F515F4FBE016F5B7F4FCB5F87
:1039D000DE4F8881C550D140CA5FDE4F9881C65006
:1039E000D1400E94DE14AE014F555F4FBE016F59AA
:1039F0007F4FCD5FDE4F88819981C350D1400E94B7
:103A0000DE1418CFCF5FDE4F8881C150D1408F5F69
:103A1000CF5FDE4F8883C150D14044244394512C62
:103A200085CFEF92FF920F931F93CF93DF93EB011C
:103A3000BA01CC0FDD1F2C173D07A8F489017C01CA
:103A4000A9010E949F2CAE01401B510B70E060E069
:103A5000C701800F911FDF91CF911F910F91FF90B0
:103A6000EF900C94A82CAE01DF91CF911F910F9194
:103A7000FF90EF900C949F2C0F931F93CF93DF93A5
:103A80008C01EA0120E430E0AB0160E270E0CE019D
:103A90000E94111DFE01E05CFF4F11821082BE01E9
:103AA000C801DF91CF911F910F910C947F160E9456
:103AB0008D2C0F931F93CF93DF93EC018881998115
:103AC000009759F02A813B812617370730F081E0B3
:103AD000DF91CF911F910F9108958B016F5F7F4F01
:103AE0000E94D02B009759F0998388831B830A8307
:103AF0002C813D81232B59F7FC011082E8CF80E017
:103B0000E7CFEF92FF920F931F93CF93DF9361154F
:103B1000710541F480E0DF91CF911F910F91FF90EB
:103B2000EF90089541155105B1F07B01EC010C8136
:103B30001D81040F151FB8010E94591D882351F3E0
:103B4000288139818C819D81B701820F931F0E944A
:103B5000AF2C1D830C8381E0DECFCF93DF93EC018C
:103B600088819981009711F00E94472B1982188251
:103B70001D821C821B821A82DF91CF910895EF92E1
:103B8000FF920F931F93CF93DF93EC017B018A0188
:103B9000BA010E94591D81110BC0CE010E94AD1DBA
:103BA000CE01DF91CF911F910F91FF90EF9008957B
:103BB0001D830C83B701888199810E94AF2CF0CFBF
:103BC000FB0101900020E9F73197AF01461B570B2D
:103BD0000C94BF1D0F931F93CF93DF9300D0CDB7ED
:103BE000DEB78C0183E591E00E94210418161906C6
:103BF000CCF7F8011182108213821282158214828E
:103C000066E371E0C8010E94E01D0E94D30397FDA6
:103C10000BC089831A8241E050E0BE016F5F7F4F85
:103C2000C8010E94811DF1CFC8010F900F90DF9154
:103C3000CF911F910F910895CF93DF93EC01FB017A
:103C40008617970749F0608171816115710541F010
:103C5000448155810E94BF1DCE01DF91CF9108950F
:103C60000E94AD1DF9CFFC0180819181009711F078
:103C70000C94472B0895CF93DF93EC010E941F15FE
:103C8000CE01DF91CF910C94472BCF93DF93EC01C2
:103C900040E450E06AE471E002960E944F29FE0180
:103CA000EE52FF4F1082709710821182128213829F
:103CB0001482158216821782C653DF4F188219822A
:103CC0001A821B821C821D821E821F82DF91CF916D
:103CD0000895DF92EF92FF920F931F93CF93DF939C
:103CE000CDB7DEB7C058D1090FB6F894DEBF0FBE0E
:103CF000CDBF8C017B01D42E40E250E06AEC70E035
:103D0000CE0101960E944F2940E250E06AEA70E03D
:103D1000CE0181960E944F2940E250E06AE271E0B4
:103D2000CE018F5B9F4F0E944F2940E250E06AE82E
:103D300070E0CE018F599F4F0E944F292D2DAE016B
:103D40004F5F5F4FB701C8010E94BA1ACE010196BA
:103D50000E942915C058DF4F0FB6F894DEBF0FBE82
:103D6000CDBFDF91CF911F910F91FF90EF90DF902A
:103D700008958F929F92AF92BF92CF92DF92EF926F
:103D8000FF920F931F93CF93DF93CDB7DEB7C0544D
:103D9000D1090FB6F894DEBF0FBECDBF8C01AB01C9
:103DA0006C0180E2C80ED11C20E230E060E170E0DE
:103DB000C6010E94111DF80186AD97AD5C01AA24D1
:103DC000BB0CAA1CBB249F7797AF86AF4801F0E4D9
:103DD0008F0E911C40E250E06AE271E0C4010E9443
:103DE0004F29780180E6E80EF11CB601C7010E9458
:103DF0000215A401B701C8010E94AF124AE051E0C8
:103E0000B701C7010E94B813A401B701C7010E94FE
:103E10002D13B701CE0181960E94A115AE014F5D11
:103E20005F4FB801C7010E94DE14CE0181960E9447
:103E30002D15F701808191813296980120583F4FCE
:103E400041915191842B952BE217F307C9F7892BE8
:103E5000E9F4AB2809F06FC080E2F80111928A956D
:103E6000E9F781E0C05CDF4F0FB6F894DEBF0FBE0C
:103E7000CDBFDF91CF911F910F91FF90EF90DF9019
:103E8000CF90BF90AF909F908F900895B701C801D9
:103E90000E943115B801C8010E940215A701B8019E
:103EA000C8010E94DE14B801C8010E940215B801C1
:103EB000CE0101960E94021540E250E0BE016F5F04
:103EC0007F4FC7010E94922C892BE1F4CE0101960D
:103ED0000E942D15F80180819181817099278A15A2
:103EE0009B0551F080E2F70111928A95E9F7A8014C
:103EF000B701C8010E94AF12A601B801C7010E9414
:103F0000DE14AFCF4AEE50E0B801C8010E94B813EA
:103F1000B801CE0101960E94021540E250E0BE01B8
:103F20006F5F7F4FC7010E94922C892B79F2CE01DF
:103F300001960E942D1580E095CFCF92DF92EF92EF
:103F4000FF920F931F93CF93DF9300D01F92CDB7B3
:103F5000DEB76C017B011B8210E000E0D7011496F4
:103F60008D919C9115970817190720F4ED91FC91FC
:103F7000309741F510924401E4E4F1E020812223DE
:103F800039F10817190730F4F70160817181611563
:103F90007105D9F41092440164E471E042E050E00C
:103FA000CE0101960E94B62C40E150E070E060E046
:103FB000CE0101960E942F28D6016D936D010E5FF0
:103FC0001F4FCCCFE00FF11FD9CF600F711FE6CF8D
:103FD0000F900F900F90DF91CF911F910F91FF9055
:103FE000EF90DF90CF9008951F920F920FB60F922F
:103FF00011242F933F938F939F93AF93BF938091FF
:104000004F0190915001A0915101B0915201309116
:104010004E0123E0230F2D3758F50196A11DB11D48
:1040200020934E0180934F0190935001A093510132
:10403000B093520180914A0190914B01A0914C01A3
:10404000B0914D010196A11DB11D80934A0190933D
:104050004B01A0934C01B0934D01BF91AF919F9143
:104060008F913F912F910F900FBE0F901F90189539
:1040700026E8230F0296A11DB11DD2CF1F920F92E9
:104080000FB60F9211242F933F934F935F936F932B
:104090007F938F939F93AF93BF93EF93FF9383E5AA
:1040A00091E00E944104FF91EF91BF91AF919F91E8
:1040B0008F917F916F915F914F913F912F910F90D1
:1040C0000FBE0F901F9018951F920F920FB60F9270
:1040D00011242F938F939F93EF93FF93E0916301AC
:1040E000F09164018081E0916901F0916A0182FDA3
:1040F0001BC0908180916C018F5F8F7320916D0147
:10410000821741F0E0916C01F0E0ED5AFE4F958F7F
:1041100080936C01FF91EF919F918F912F910F9060
:104120000FBE0F901F9018958081F4CF1F920F92B1
:104130000FB60F9211242F934F935F936F937F933A
:104140008F939F93AF93BF932091840080914601FA
:1041500090914701A0914801B0914901820F911DB2
:10416000A11DB11D8093460190934701A093480182
:10417000B09349018091460190914701A091480177
:10418000B091490140914601509147016091480129
:10419000709149012AE0880F991FAA1FBB1F2A9519
:1041A000D1F7840F951FA61FB71F809346019093E8
:1041B0004701A0934801B093490180914601909135
:1041C0004701A0914801B0914901409146015091A9
:1041D0004701609148017091490126E0B695A79585
:1041E000979587952A95D1F784279527A627B727EE
:1041F0008093460190934701A0934801B0934901F1
:10420000809145018F5F80934501BF91AF919F9150
:104210008F917F916F915F914F912F910F900FBE72
:104220000F901F901895E3E5F1E01382128288EE5B
:1042300093E0A0E0B0E084839583A683B78386E211
:1042400091E09183808385EC90E09587848784EC6E
:1042500090E09787868780EC90E0918B808B81EC53
:1042600090E0938B828B82EC90E0958B848B86EC34
:1042700090E0978B868B118E128E138E148EE0E752
:10428000F2E010828181807880628F778183109242
:10429000720210927302109274021092750280E8FA
:1042A0009EEEA6E3B0E08093760290937702A0930F
:1042B0007802B093790210928202109283020895DC
:1042C000CF93DF93CDB7DEB7C55DD3400FB6F8947B
:1042D000DEBF0FBECDBF789484B5826084BD84B547
:1042E000816084BD85B5826085BD85B5816085BDF1
:1042F00080916E00816080936E00109281008091A9
:104300008100826080938100809181008160809330
:104310008100809180008160809380008091B10055
:1043200084608093B1008091B00081608093B00080
:1043300080917A00846080937A0080917A00826014
:1043400080937A0080917A00816080937A008091D6
:104350007A00806880937A001092C100E091630136
:10436000F091640182E08083E0916301F091640147
:104370001082E0915F01F09160011082E091610193
:10438000F091620180E1808310926B01E0916701FE
:10439000F091680186E08083E0916501F09166010B
:1043A000808180618083E0916501F0916601808168
:1043B00088608083E0916501F0916601808180686A
:1043C0008083E0916501F091660180818F7D80831B
:1043D00080E480937C0080917A00806480937A00EE
:1043E00080917A0086FDFCCF809178006091790001
:1043F000762F682F072E000C880B990B611571051D
:104400008105910511F00E9426287E012CE2E21A16
:104410002DEFF20AC7018096CE52DC4F9983888334
:10442000C25DD340E4ED4E2E552453944C0E5D1ED8
:1044300090E2490E511CF4ED6F2E712C6C0E7D1E16
:10444000A0E26A0E711CE4E5F1E0EC0FFD1FB096EE
:10445000CC52DC4FF983E883C45DD3406E01FCE6A7
:10446000CF1AFCEFDF0A83E591E00E9421041816C1
:1044700019060CF042C083E591E00E94BF03823729
:10448000910509F062C00E94D72728EB3BE040E08D
:1044900050E00E94B7294B015C01B7FE3BC06DE2C2
:1044A00083E591E00E94630422273327A90128199C
:1044B00039094A095B0919A28E010F5D1F4F7AE085
:1044C000872E912CA12CB12CCA01B901A501940110
:1044D0000E949529605DD8016E938D0121153105EB
:1044E0004105510589F70115110519F0C8010E9410
:1044F000FA1684E391E00E94FA1680E090E0892B9E
:1045000009F4B1CF0E942D04882309F4A7CF0E949B
:104510000000A4CFAC019B0119A28E010F5D1F4FBB
:104520006AE0862E912CA12CB12CCA01B901A501FB
:1045300094010E949529605DF80162938F01211515
:1045400031054105510589F7CECF8D36910509F02A
:104550003DC01A8219821C821B821E821D8266E364
:1045600071E0CE0101960E94E01D0AE010E024E215
:10457000822E912CA12CB12C0E94D727A501940149
:104580000E94B7296B3100F56F59CC52DF4F688319
:10459000C45DD040CB52DF4F1882C55DD04041E0B2
:1045A00050E0BE016C527F4FCE0101960E94811DEA
:1045B0000150110909F7CE0101960E940717CE019B
:1045C00001960E94331E99CF6A5EDFCF8337910533
:1045D00009F054C2CE0182549C4F0E94EA1DCE01C4
:1045E0008C549C4F0E94EA1DC6010E94EA1DCE53C6
:1045F000DC4F48815981C25CD340C254DC4F2881D2
:104600003981CE5BD340FE01EC58FC4F90E080E056
:104610008417950708F030C22115310509F42CC222
:10462000D901A80FB91F6C91619301968A30910549
:1046300079F74E01FCEA8F1AFCEF9F0A90E2392EBF
:10464000D401E32D1D92EA95E9F71A8219821C82A2
:104650001B821E821D82B6018E010F5F1F4FC80193
:104660000E941C1EB801C4010E949D1FC8010E9427
:10467000331E5E01FCECAF1AFCEFBF0AD501E32D3F
:104680001D92EA95E9F71A8219821C821B821E820A
:104690001D82BE016C547C4FC8010E941C1EB801D3
:1046A000C5010E949D1FC8010E94331E83E591E051
:1046B0000E94B0048EE091E09A838983C8010E9431
:1046C000451EC8010E94451E40E250E0B401C801E9
:1046D0000E941C1750E040E0BE016D5B7F4FC80197
:1046E0000E94C31724968FAD2497887F24968FAF9E
:1046F0002497A3968FADA3978F778064A3968FAFEF
:10470000A39720E230E0AE014D5B5F4F60E170E0C7
:10471000CE018C5E9C4F0E94111DC8010E94451E57
:1047200040E250E0BE016D597F4FC8010E941C1746
:1047300042E050E0BE016C587C4FC8010E941C173B
:1047400050E040E0BE016D5B7F4FC8010E94C3177F
:10475000AE014C5A5E4FBE016D5B7F4FC7010E9498
:104760003C1D41E0B701CE018C529F4F0E94691E53
:10477000BE016C5E7E4FCE018C5C9E4F0E94A115E7
:10478000AE014C5C5E4FBE016C527F4FCB010E946C
:10479000DE14AE014C5C5E4FB301C3010E94DE1417
:1047A000CC52DF4F8881C45DD0408795882787959C
:1047B000CF52DC4F8883C15DD340C053DC4F188299
:1047C000C05DD340CE5EDE4F88819981C251D14019
:1047D000C053DC4F28813981C05DD340822B932B9D
:1047E000CE5EDE4F99838883C251D140F301DE0152
:1047F000AC52BE4F01900D923A94E1F7C8010E946D
:10480000451E40E250E0BE016C527E4FC8010E943E
:104810001C1740E250E0B501C8010E941C1742E09D
:1048200050E0BE016C587C4FC8010E941C1750E03C
:1048300040E0BE016D5B7F4FC8010E94C317AE010F
:104840004C5A5E4FBE016D5B7F4FCE018C5A9D4F1F
:104850000E943C1DAE014C5E5C4FBE016C5A7D4F08
:10486000CE018C5A9E4F0E946114CC56DE4F1982A5
:104870001882C459D140BE016C5A7E4FCB010E94B0
:104880007F16FE01EC5AFE4FD7019F01205E3F4F7D
:10489000812C912C54016D917D914081518190E04A
:1048A00080E0640F751F811D911D860E971EA81E46
:1048B000B91E819291924501AA24BB242E173F076D
:1048C00051F7BE016C5A7E4FCB010E94510280E22B
:1048D000FE01EC5AFE4FA4EDB1E0AC0FBD1F909667
:1048E00001900D928A95E1F7CE018C5E9C4F0E945B
:1048F0002D15C7010E942D15CE018C5A9D4F0E9487
:104900002D1562E470E0CE018C5A9E4F0E94051571
:10491000CE018C529F4F0E942915C8010E941F157D
:10492000CC5ADE4F19821882C455D140CA5ADE4F84
:1049300019821882C655D140C85ADE4F1982188292
:10494000C855D14066E371E0CE018C5A9E4F0E945B
:10495000E01DCE018C529E4F5C014E019CEE891AE7
:104960009DEF990AD5018D915D01CC52DF4F1982DF
:104970001882C45DD040CA52DF4F19821882C65DCA
:10498000D040C852DF4F19821882C85DD04040E144
:10499000B80190E00E945829F80101900020E9F741
:1049A0003197AF01401B510BB801CE018C529F4F84
:1049B0000E94BF1DC852DF4F88819981C85DD040D9
:1049C000029750F51A8219821C821B821E821D8258
:1049D00041E050E067E371E0C8010E94BF1DC8528A
:1049E000DF4F48815981C85DD040CC52DF4F68818C
:1049F0007981C45DD040C8010E94811D811103C02E
:104A0000C8010E94AD1DB801CE018C529F4F0E947B
:104A10001C1EC8010E94331EC852DF4F48815981B5
:104A2000C85DD040CC52DF4F68817981C45DD040F1
:104A3000CE018C5A9E4F0E94811DCE018C529F4FF9
:104A40000E94331E8A149B0409F08CCFCE018C5A2D
:104A50009E4F0E940717CE018C5A9E4F0E94331E14
:104A6000C6010E94331ECE018C549C4F0E94331EFF
:104A7000CE0182549C4FA5CD60E0D6CD86379105FE
:104A800009F03BCDCE0186539C4F0E94EA1DCE011A
:104A90008C539C4F0E94EA1DCE0182549C4F0E9471
:104AA000EA1D8E010C541C4F8AE0F80111928A9580
:104AB000E9F780E4D7011D928A95E9F780E2F601D3
:104AC00011928A95E9F7C253DC4F48815981CE5C37
:104AD000D340C653DC4F28813981CA5CD340F801EA
:104AE00090E080E08417950708F07EC0211531051D
:104AF00009F47AC0D901A80FB91F6C91619301968E
:104B00008A30910579F71A8219821C821B821E82D3
:104B10001D82BE016C537C4FCE0101960E941C1E6B
:104B2000BE016F5F7F4FC7010E949D1FCE0101969E
:104B30000E94331E1A8219821C821B821E821D82D1
:104B4000BE0162547C4FCE0101960E941C1EBE0124
:104B50006F5F7F4FC6010E949D1FCE0101960E948C
:104B6000331E8EE091E09A838983CE0101960E94E4
:104B7000451EB601CE018C5A9D4F0E94B91E81116F
:104B800035C010E0CE018C5A9D4F0E942915CE01F0
:104B90008C529E4F0E942915CE018C5A9E4F0E9426
:104BA0002915CE018C529F4F0E942915CE010196E6
:104BB0000E941F1589E391E0111102C08EE391E07C
:104BC0000E94FA1684E391E00E94FA16CE01825404
:104BD0009C4F0E94331ECE018C539C4F0E94331E6B
:104BE000CE0186539C4FEDCC60E088CFB701CE015B
:104BF0008C529E4F0E94B91E882319F2CE01019655
:104C00000E94451E40E250E0B701CE0101960E948D
:104C10001C1740E250E0B601CE0101960E941C171D
:104C200042E050E0B801CE0101960E941C1750E00E
:104C300040E0BE016D5B7F4FCE0101960E94C3171D
:104C400020E230E0CE52DC4F48815981C25DD34032
:104C500060E170E0CE018C5C9E4F0E94111D40E02F
:104C6000BE016C5C7E4FCE018C5A9E4F0E94691E25
:104C7000AE014C525F4FBE016D5B7F4FCE018C5435
:104C80009E4F0E943C1D20E0AE014C5A5D4FBE017C
:104C90006C547E4FCE018C529F4F0E94BA1AAE01C7
:104CA0004C525E4FB201CE018C589C4F0E94AF1205
:104CB000AE014C525F4FB301CE018C5C9C4F0E9401
:104CC000AF12AE014C5C5C4FBE016C587C4FCB0107
:104CD0000E94DE14AE014C525E4FB201CE018C5ADE
:104CE0009C4F0E942D13AE014C525F4FB301CE0179
:104CF0008C5C9C4F0E942D13AE014C5C5C4FBE013E
:104D00006C5A7C4FCB010E94DE14AE014C5C5E4FAE
:104D1000BE016C5C7D4FCE018C5C9C4F0E94DE140A
:104D20004AE054E0BE016C5C7C4FCB010E94B8139A
:104D3000AE014C5E5E4FBE016C5E7D4FCE018C5E5F
:104D40009C4F0E94DE14AE014C5E5C4FBA01CA015A
:104D50000E942D13AE014C585C4FBE016C5A7C4F23
:104D6000CE018C5C9D4F0E94AF12AE014C5C5C4F3B
:104D7000BE016C5E7C4FCE018C5E9D4F0E94AF12D7
:104D8000AE014C5C5C4FBE016C5E7C4FCB010E945F
:104D90002D13AE014C585C4FBE016C5A7C4FCB01B9
:104DA0000E942D13AE014C5E5D4FBE016C5C7D4FC9
:104DB000CE018C529E4F0E94DE14AE014C5A5C4FC5
:104DC000BE016C5E7C4FC2010E94DE14AE014C5EDF
:104DD0005C4FBE016C5E7D4FCB010E94DE14AE01C4
:104DE0004C5A5C4FBE016C5C7D4FCB010E94DE14BF
:104DF000CE018C589C4F0E942D15CE018C5A9C4F91
:104E00000E942D15CE018C5C9C4F0E942D15CE0169
:104E10008C5E9C4F0E942D15AE014C5E5D4FBE0115
:104E20006C5A7E4FCE018C5C9C4F0E94DE14AE010A
:104E30004C565E4FBE016C527E4FCE018C5E9C4F35
:104E40000E94DE149E012C5C3C4F5901CE018C5E09
:104E50009C4F4C01A901405E5F4FFC01890120E09D
:104E6000D8018D918D0191918927282B4A175B07D5
:104E7000B9F780E091E0821B9109392EAE014C5EBA
:104E80005D4FCC52DC4F68817981C45DD340CE0147
:104E90008C5C9C4F0E94DE14AE014C565E4FB201FA
:104EA000CE018C5E9C4F0E94DE1420E0F5018191C2
:104EB0005F01D4019D914D018927282B0E171F07F3
:104EC000A9F780E091E0821B9109192F132111703D
:104ED000CE018C5C9C4F0E942D15CE018C5E9C4FA8
:104EE0000E942D154FCEF894A89584B7877F84BF74
:104EF000E0E6F0E08081886180831082789460E44D
:104F000070E080EF91E00E94051560E470E080E3BE
:104F100092E00C9405158F929F92AF92BF92CF9220
:104F2000DF92EF92FF92CF93DF93EC01688179815A
:104F30008A819B81611571058105910521F464E2E7
:104F400079ED8BE597E02DE133EF41E050E00E94F1
:104F5000B72949015A019B01AC01A7EAB1E40E94BB
:104F6000D6296B017C01ACEEB4EFA50194010E943F
:104F7000E429C60ED71EE81EF91EF7FE06C081E022
:104F8000C81AD108E10880E8F80AC882D982EA8202
:104F9000FB82C701B6019F77DF91CF91FF90EF9021
:104FA000DF90CF90BF90AF909F908F9008958F9299
:104FB0009F92AF92BF92CF92DF92EF92FF92609159
:104FC000000170910101809102019091030161152E
:104FD00071058105910521F464E279ED8BE597E097
:104FE0002DE133EF41E050E00E94B72949015A0119
:104FF0009B01AC01A7EAB1E40E94D6296B017C01B8
:10500000ACEEB4EFA50194010E94E429C60ED71EB0
:10501000E81EF91EF7FE06C081E0C81AD108E108B3
:1050200080E8F80AC0920001D0920101E0920201EA
:10503000F0920301C701B6019F77FF90EF90DF90D8
:10504000CF90BF90AF909F908F9008956093000194
:105050007093010180930201909303010895B0E0E1
:10506000A0E0E5E3F8E20C94EA295C016B017A0127
:105070006115710519F0FB0191838083E114F1043E
:1050800051F0C7010297839730F040E030E020E014
:1050900090E072C05E01E5012196F5011081812F3B
:1050A00090E00E944629892BA9F71D3201F521962F
:1050B000F501118101E0E114F10409F4DAC0F0E135
:1050C000EF16F10409F082C0103359F488818F7D06
:1050D000883509F076C0198122960260F0E1EF2E42
:1050E000F12C812C912CA12C88E0B82E8CC01B3285
:1050F00021F4E5012296F501118100E0DCCFEAE020
:10510000EE16F10409F4BBC0F0E1EF16F10409F06A
:105110006DC0E7CF78E0E72EF12C812C912CA12CEB
:1051200060E1B62E70C03FE9310F3A3128F439EA18
:10513000332E80C021E09AC0302F3170C114D104C9
:1051400031F0222309F12197F601D183C08327FF93
:1051500021C060E070E080E090E8311104C06FEFA2
:105160007FEF8FEF9FE722E230E0309385022093BC
:105170008402462F372F282F642F732F822FCDB70D
:10518000DEB7E1E10C94062A01FF04C02297F60184
:10519000D183C083332341F09095809570956195BC
:1051A0007F4F8F4F9F4FE5CF97FFE3CF82E290E095
:1051B00090938502809384026FEF7FEF8FEF9FE7DC
:1051C000D8CF10E3E114F10409F4A4CF28E0E216EB
:1051D000F10409F4A2CF0CF092CF812C912CA12CD8
:1051E000E0E4BE2E82E0E816F10469F060E070E0D1
:1051F00080E090E897010F2C000C440B550B0E94A7
:10520000952949015A0120E060E070E0CB012701B7
:105210000F2C000C66087708FE0150ED352E310E7C
:1052200039E0331540F43FEB310F3A3108F07BCFD2
:1052300049EC342E310E3E141F040CF07DCF27FDB7
:1052400015C086169706A806B90678F0A301920144
:105250000E948529630D711D811D911D61307105AD
:10526000810520E8920708F465CF2FEF2196108181
:10527000D3CF103309F42ACF2AE0E22EF12C9CEC94
:10528000892E982CA82C9CE0B92EBDCF91110C949E
:105290007229803219F089508550C8F70895FB01B2
:1052A000DC0102C005900D9241505040D8F708959E
:1052B000BB27FB015527AA27880F991FAA1FA417F0
:1052C00010F0A41B83955051B9F7A05DAA3308F0E4
:1052D000A95DA193009779F7B111B1931192CB0118
:1052E0000C947529992788270895DC01FC01672F04
:1052F00071917723E1F7329704C07C916D937083AD
:105300006291AE17BF07C8F30895DB018F939F9397
:105310000E94D629BF91AF91A29F800D911DA39F9E
:10532000900DB29F900D11240895A1E21A2EAA1B90
:10533000BB1BFD010DC0AA1FBB1FEE1FFF1FA21745
:10534000B307E407F50720F0A21BB30BE40BF50B42
:10535000661F771F881F991F1A9469F760957095CB
:10536000809590959B01AC01BD01CF010895052E5C
:1053700097FB1EF400940E94CE2957FD07D00E948F
:10538000952907FC03D04EF40C94CE2950954095F6
:10539000309521953F4F4F4F5F4F089590958095E1
:1053A000709561957F4F8F4F9F4F08950E94202ADF
:1053B000A59F900DB49F900DA49F800D911D112469
:1053C0000895B7FF0C94D6290E94D629821B930B0F
:1053D00008952F923F924F925F926F927F928F9299
:1053E0009F92AF92BF92CF92DF92EF92FF920F9374
:1053F0001F93CF93DF93CDB7DEB7CA1BDB0B0FB67E
:10540000F894DEBF0FBECDBF09942A88398848883A
:105410005F846E847D848C849B84AA84B984C884D0
:10542000DF80EE80FD800C811B81AA81B981CE0FC7
:10543000D11D0FB6F894DEBF0FBECDBFED010895AC
:10544000A29FB001B39FC001A39F700D811D1124C5
:10545000911DB29F700D811D1124911D0895692722
:10546000962769277827872778270895002E083000
:1054700090F0982F872F762F652F542F432F322FA0
:1054800022270850F4CF220F331F441F551F661FD9
:10549000771F881F991F0A95B2F7002D089597FD71
:1054A0001094002E083098F00850232F342F452FE9
:1054B000562F672F782F892F912DF4CF159497951C
:1054C00087957795679557954795379527950A95C9
:1054D000AAF71124002D08950F930830A0F008506A
:1054E000092E982F872F762F652F542F432F322F79
:1054F000202DF3CF220F331F441F551F661F771F28
:10550000881F991F211D0A95AAF70F9108952A0D4A
:105510003B1D4C1D5D1D6E1D7F1D801F911F08953D
:105520000024A7FD00942A0F301D401D501D601D52
:10553000701D801D901D08952A153B054C055D05C5
:105540006E057F05800791070895EE0FFF1F0590F8
:10555000F491E02D09940F931F93CF93DF93823042
:10556000910510F482E090E0E0918802F0918902C8
:1055700030E020E0B0E0A0E0309799F4211531054B
:1055800009F44AC0281B390B24303105D8F58A812B
:105590009B816115710589F1FB0193838283FE0173
:1055A00011C0408151810281138148175907E0F0F1
:1055B0004817590799F4109761F012960C931297B7
:1055C00013961C933296CF01DF91CF911F910F91CB
:1055D00008950093880210938902F4CF21153105B4
:1055E00051F04217530738F0A901DB019A01BD01C0
:1055F000DF01F801C1CFEF01F9CF909389028093C9
:105600008802CDCFFE01E20FF31F819391932250C8
:10561000310939832883D7CF2091860230918702C0
:10562000232B41F42091060130910701309387022A
:105630002093860220910401309105012115310546
:1056400041F42DB73EB74091080150910901241B48
:10565000350BE0918602F0918702E217F307A0F480
:105660002E1B3F0B2817390778F0AC014E5F5F4FB8
:105670002417350748F04E0F5F1F50938702409361
:105680008602819391939FCFF0E0E0E09CCFCF938F
:10569000DF930097E9F0FC01329713821282A09108
:1056A0008802B0918902ED0130E020E01097A1F46A
:1056B00020813181820F931F2091860230918702D1
:1056C0002817390709F061C0F0938702E09386023A
:1056D000DF91CF910895EA01CE17DF07E8F54A81FF
:1056E0005B819E0141155105B1F7E901FB83EA8316
:1056F00049915991C40FD51FEC17FD0761F48081C2
:1057000091810296840F951FE90199838883828194
:1057100093819B838A83F0E0E0E012968D919C91C7
:1057200013970097B9F52D913C911197CD010296F1
:10573000820F931F20918602309187022817390724
:1057400039F6309751F51092890210928802B09381
:105750008702A0938602BCCFD383C283408151814C
:10576000840F951FC817D90761F44E5F5F4F88817A
:105770009981480F591F518340838A819B8193836C
:1057800082832115310509F0B0CFF0938902E093AF
:1057900088029ECFFD01DC01C0CF13821282D7CFD9
:1057A000B0E0A0E0E6EDFBE20C94EB298C01009761
:1057B00051F4CB010E94AB2A8C01C801CDB7DEB7F2
:1057C000E0E10C94072AFC01E60FF71F9C01225030
:1057D0003109E217F30708F49DC0D901CD91DC919E
:1057E0001197C617D70798F0C530D10530F3CE0111
:1057F00004978617970708F3C61BD70B2297C19308
:10580000D1936D937C93CF010E94472BD6CF5B0140
:10581000AC1ABD0A4C018C0E9D1EA0918802B0915D
:105820008902512C412CF12CE12C109731F58091FB
:105830008602909187028815990509F05CC046168A
:10584000570608F058C08091040190910501009717
:1058500041F48DB79EB74091080150910901841B16
:10586000950BE817F90708F055C0F0938702E0930D
:105870008602F90171836083A0CF8D919C9111976D
:1058800012966C90129713967C901397A815B905F1
:1058900059F56C0142E0C40ED11CCA14DB0420F19E
:1058A000AC014A195B09DA011296159780F0628201
:1058B000738251834083D9016D937C93E114F10489
:1058C00071F0D7011396FC93EE93129776CF229640
:1058D0008C0F9D1FF90191838083F301EFCFF0932B
:1058E0008902E093880269CF4816590608F42C0112
:1058F0007D01D3019ACFCB010E94AB2A7C01009796
:1059000049F0AE01B8010E949F2CC8010E94472BAC
:10591000870153CF10E000E050CF81E090E0F89491
:105920000C94C52CFB01DC0104C08D910190801901
:1059300021F441505040C8F7881B990B0895FB0192
:10594000DC0102C001900D9241505040D8F70895FB
:10595000DC0101C06D9341505040E0F70895FB0118
:10596000DC0101900D920020E1F70895FB01DC01BC
:105970004150504048F001900D920020C9F701C0FD
:105980001D9241505040E0F7089512E0C6E2D2E087
:1059900004C0FE010E94A52A2196C732D107C9F78B
:0459A000F894FFCFA9
:1059A4000100000000008A028000000000001F15B2
:1059B4003B1E82127F12451E1C17C3170E158D1A2B
:1059C4000C1A0000000063048303B003B004210434
:1059D400BF0313040D0A003000747275650066611C
:0459E4006C7365007B
:00000001FF
